:020000040000FA
:100000000212FF022003FFFFFFFFFF02200BFFFF92
:10001000FFFFFF020E61FFFFFFFFFF02201BFFFF3C
:10002000FFFFFF022023FFFFFFFFFF02202BFFFF48
:10003000FFFFFF022033FFFFFFFFFF020EA4FFFFC1
:10004000FFFFFF022043FFFFFFFFFF02204BFFFFE8
:10005000FFFFFF022053FFFFFFFFFF02205BFFFFB8
:10006000FFFFFF022063FFFFFFFFFF02206BFFFF88
:10007000FFFFFF022073FFFFFFFFFF02207BFFFF58
:10008000FFFFFF022083FFFFFFFFFF02208BFFFF28
:10009000FFFF70DFFFFF040000000002000000C847
:1000A0000300030369A5020269A501000000000026
:1000B00004003273000074F8121046900393E0605D
:1000C0001590030274FEF0900304744DF0A37405C0
:1000D000F07A011206857F0102116374F71210464F
:1000E00074FF12126B7E00801F851882851983E0D1
:1000F00064FE70069003877401F085188285198369
:10010000E0F8900384E068F07C017D00AA18AB1948
:10011000120E1C8B09EA450970030201F38518824F
:10012000851983E064EF70027E07E0C0E0900387EA
:10013000E0FA900385E0F8EA28F8E43400F9740264
:1001400028F582740339F583D0E0F0900387E060EE
:100150009814600E14602C14603C14605214606893
:100160008098900384E4F0851882851983E09003D9
:1001700086F0C394809003874004E40200F974027F
:100180000200F9851882851983E0900382F09003BC
:100190008774030200F9851882851983E090038330
:1001A000F0900386E0601990038774040200F990D0
:1001B0000385E004F0F8900386E06860030200FA2B
:1001C00090038774050200F9900385E4F09003879B
:1001D000F0900384E0F8851882851983E068600355
:1001E0000200FA900382E0644D60030200FA1203F9
:1001F000288002EEF974011212377F020211637433
:10020000F712104674FB12126BEAFEEBFF7508043E
:1002100075090078081212CF74021212E87A907BE6
:10022000007904120EC574021212371206771213E7
:1002300039E0687003A3E06970128518828519831C
:10024000E0F47003A3E0F4600302030874041212E4
:10025000E01206DD8A088B09A808A90974021213A6
:1002600039E8F0A3E9F07404121339E06008790169
:100270001200B6020321851882851983E068700395
:10028000A3E0697076851882851983E0F47003A372
:10029000E0F4701974021213397410F0A37420F092
:1002A0008518828519837410F0A37420F0750801F5
:1002B00075090078081212CF74021212E87A247BB2
:1002C00008120F49740212123775080478081212C6
:1002D000CF74021212E87A907B007904120EC57472
:1002E00002121237120677121339E0687003A3E086
:1002F000697004790280067904800279031200B6DD
:100300008E828F83741E80058E828F83E4F01206A6
:1003100077121339E0687003A3E0697004790180F3
:1003200002790074050201F774ED12104674F81298
:10033000126B900307E0FD900306E0FCFAEDF8E491
:10034000C8F9EA28FEE93408FF751001750B00753D
:100350000A068E088F0974027808121296C395084F
:10036000F8E49509F9740228F50E740339F50F8E37
:10037000088F09740978081212F0E508F511EE24C7
:1003800010F508E43FF509EEF50CEF5401F50D907A
:100390000383E014605914700302046414700302B0
:1003A00004DF14601024FE700302059A1470030227
:1003B000064A02065A750A03794E120C5B9003072F
:1003C00012066D7402F0A3744012066B74081206D4
:1003D0006BF0A3F07418C3940704F510AA10A90BCE
:1003E000120685A90A74081212377F0C0211637570
:1003F0000A04794E120C5BEE450D7005A911120F1F
:10040000AFC3EE9425EF9408503CC3E5089424E56F
:100410000994084031E50E2496F8E50F3420F98858
:10042000828983E0701BA3AA82AB83E070139003E0
:10043000887401F08882898374A5F08A828B838016
:1004400004900388E4F0750810750900780812120A
:10045000CF7C087D03EEFAEFFB120F4974021212F3
:10046000370203DC750A05E511C394794006750B64
:10047000010203DC75124075130078121212CF7C52
:10048000097D037402780C121296AA0CAB0DA91107
:10049000120EC57402121237900307E0A3F0900306
:1004A00006E0A3F0751043C3EE9425EF94084003D3
:1004B0000203DCC3E5089424E50994085003020311
:1004C000DC900388E070030203DCE50E2497F8E576
:1004D0000F3420F988828983E4F0A3F00203DC75ED
:1004E000080475090078081212CF74021212E87A13
:1004F000907B007904120EC5740212123774021236
:100500001339E0F8A3E0F9851882851983E0687053
:1005100003A3E069851882851983700BE0F47003EA
:10052000A3E0F470578009E0F47003A3E0F4700DC9
:100530008518828519837410F0A37420F012067751
:10054000121339E8F0A3E9F075080178081212CF08
:1005500074021212E87A247B08120F4974021212F4
:100560003775080478081212CF74021212E87A90D4
:100570007B007904120EC57402121237120677122C
:100580001339E0687003A3E0697006750A0102037D
:10059000DC750A02750B070203DC900391E060072B
:1005A000640260030203DCEDFF7A01790012068524
:1005B000E0600302063E8003120D1C120D26E97056
:1005C000F7740412133912065F7404121339780891
:1005D00012131D85080C85090D850A0E850B0F90D9
:1005E00005A2780C1212BC7404121339780C121381
:1005F0000EE5084509450A450B70CE8EC2E5C55487
:10060000E04FF5C5740412133912065F7404121317
:1006100039780812131D85080C85090D850A0E8589
:100620000B0F9005A2780C1212BC740412133978C7
:100630000C12130EE5084509450A450B70CE7A01E8
:10064000790012068579080203E5EC900393F070B7
:10065000030203DC750A090203DC79060203E5E400
:10066000F0A37426F0A3E4F0A3F022F0A3E4F0A337
:10067000F0A3F0A3F0A322851882851983E0F8A3E4
:10068000E0F974022274F8121046EAFE900305E0C5
:10069000D2E7F0E9A3F0EE900303F08E0874042A89
:1006A000FE7C028004E062080CECFA3395E0FB74F7
:1006B000022AF58274033BF583EEF8C3EA98EB94C3
:1006C00000A2D265D03340DDE508F074012A0C3376
:1006D00095E0FD7A027B03120E4C0200D674E912FB
:1006E00010467582007583FE1211FE8A168B1775EF
:1006F00014007515008A828B83E4F0900391E070FA
:1007000006D2AAD2AF80046402700579001200B646
:10071000750C00750D20750E00750F00900391E0AB
:10072000600464027015120D1C1200DBE9F87409F4
:1007300068600302080D79001200B675080075099B
:100740000278081212CF74021212E8850C08850D87
:1007500009AA08E5095407FB850E0A850F0B740BDF
:100760007808121252A908120EC574021212377EAE
:10077000007F009005AAC0828E10EFF5113395E03E
:10078000F512F513850C08850D09850E0A850F0BEA
:10079000780879101212A99005A678081212BC7573
:1007A0008305D08278081211DF501D8518828519C3
:1007B00083E5822EF582E5833FF583E0F9AA14AB49
:1007C0001512083C8A148B150EEE70010FC3EF94BE
:1007D0000240A09005AE780C1212BC9005B2780CC5
:1007E0001211DF400302071C7900AA14AB1512088E
:1007F0003C790012083C8B15900391E07004C2AF65
:10080000C2AAEA451570277AA57BA58021E8700366
:1008100002073B740668700302073B7407687003A5
:1008200002073B8516828517837401F080BA7582B2
:10083000007583021211FE7F10021163C008C00907
:100840007C088A088B09740F78081212F0E508F802
:10085000EA25E0FAEB33FBE9A2E7500474014AFA17
:10086000E8A2E0500874216AFA74106BFBE9C33304
:10087000F91CEC70CDD009D0082274F8121046781B
:10088000007900802274942EF582E43403F583E02D
:100890008A828B83F09004141209FA4005900414A4
:1008A000E4F008E8700109900414E0FEA3E06E6033
:1008B00007C3E89CE99D40CDE8FAE9FB7F010211FE
:1008C0006374F7121046900498E0F509A3E0F50868
:1008D000F8E509C398F895E0F9E508C39509E850EB
:1008E0000B120ADC701178007900801B247F500104
:1008F00009C39CE99D50EF7A007B008041E004F041
:10090000D2E908E8700109C3E89CE99D502C8A826D
:100910008B83E0C0E0900499E0FE74182EF582E429
:100920003404F583D0E0120ACC90049AE4F09004E9
:1009300099E0C3947F40C6E480C5E8FAE9FB7F02F2
:10094000021163C082C083C2E9900498E0F8A3E07A
:10095000686017741828F582E43404F583E0F5C163
:10096000900498120AF34002E4F0020D3A74F8126F
:1009700010467800790090051DE07055A3E0705195
:1009800075F900C28FC284A28340FCA28F4004A2EA
:100990008350F8AEF9C28FA2835004D2848032EE25
:1009A000C0E0E0FE1209EFD0E0F090051E120AF35D
:1009B00040D9E4F080D51209EFE08A828B83F09071
:1009C000051D1209FA400590051DE4F008E87001C4
:1009D0000990051DE0FEA3E06E6007C3E89CE99D59
:1009E00040D4E8497006E4F090051DF00208B874A0
:1009F0009D2EF582E43404F58322E004120AD0C36C
:100A000094802274F81210469005A0E0FEF890053C
:100A10009FE0FFEEC39FE0500DC398F895E0F912F8
:100A20000ADB70188012C398F895E0F9E8247F502B
:100A30000109C39CE99D4004EC4D70077A007B00DE
:100A4000020AC98A828B83E0F5F9A3AA82AB837874
:100A50000179008008E004F008E8700109C3E89C0F
:100A6000E99D50278A828B83E0C0E09005A0E0FEDC
:100A7000741F2EF582E43405F583D0E0120ACC9081
:100A800005A0E0C3947F40CDE480CCC28FA2834018
:100A9000FCC284A28F4004A28350F890059F120AE2
:100AA000E6E0F5F9C28F90059FE0FAA3E06A9005B1
:100AB0009F7005120AE68005120AF34002E4F0A2D4
:100AC0008350D0D284E8FAE9FB0208BC120AD02293
:100AD000F08A828B83A3AA82AB8322E824FF18E9E1
:100AE00034FFF9E84922E0FA741F2AF582E434055C
:100AF000F58322E004F0C394802274FB12126B7E13
:100B0000009005CA780812131D9005CA7401F0A35D
:100B1000F0A37469F0A374A5F09005B678081212DA
:100B20008170047E0180159005BA780812128160E8
:100B300008E59D541864107003022000120C81EE29
:100B4000A2E05003020BFEAA18AB191201FFE970D4
:100B500003020BFE851882851983E0C3943C500C78
:100B6000E0F8743CC398FA95E0FB80047A007B00BF
:100B7000120D3FE97003020BFE900391E0640170D7
:100B80000C75F800C2AB539AF7D2EA805E7907126F
:100B900000B68003120D1C120D26E970F7740112C5
:100BA0001339E4F0A37426F0A3E4F0A3F074011267
:100BB0001339780812131D85080C85090D850A0E56
:100BC000850B0F9005A2780C1212BC740112133918
:100BD000780C12130EE5084509450A450B70CE75D1
:100BE0008600C2AAC28B539AFBC2E990000174CD61
:100BF000F0022000C2AF75C9AB75C95B80FE7508F5
:100C000000750900750A00750B00900391E0701BD8
:100C1000D2AAD2AF79051200B6E07003120D1C12F1
:100C200000DBE9F8740968700980E9794E120C5B01
:100C300080ED74016870E2E07017120D1C9005BE23
:100C400078081212BC9005C278081211DF50EBC26E
:100C5000AAC2AF75C9AB75C95B80FEC082C083787C
:100C6000109005A1E0C399501575B60FE5B4A2E741
:100C700050FAE5BBC39940F118E870EDE9F0020DB8
:100C80003AC082C08353BEFBE59DA2E650FA0078CD
:100C9000F8790100120ADB70FA75C6807480659ECF
:100CA00070FA43BE049062707408F0794A120C5BCB
:100CB00090000174F5F07403F5D575D489A2A0E411
:100CC00033900391F0A2E05029D28453F3F753F309
:100CD000EF53FDF743FD10538FF753F7DF43FC202D
:100CE00043F10253F5DF75F82043F4F0D2FED2ABA6
:100CF000802853FF3F85FFFF53F1FE43F30C53F26F
:100D0000F375868075C48090049BE4F0A3F075C2EF
:100D1000D875C50B75C402438640801E8003120936
:100D200043A2E940F922C082C083900498E0F8A36E
:100D3000E0686004790180027900D083D082227457
:100D4000F112104674FF12126B7E00900391E06462
:100D500001706CC2849003927401F07508388E099A
:100D60008E0A8E0B7C017D00AA18AB19120E1C8B0B
:100D70000DEA450D6018851882851983E0641060BE
:100D80002DE064EF70088E088E098E0A8E0B8508A0
:100D90000C85090D850A0E850B0F9005A2780812A7
:100DA00012BCE50C450D450E450F70347E019003D5
:100DB00091E064017056D284900392E4F08051D2A5
:100DC000AAD2AF8A088B09E4F50AF50B9005C6781C
:100DD0000C12131D7808790C120FC679061200B692
:100DE000900391E06003020D64120D1C1200DBE918
:100DF000F8740968700779061200B6809174076864
:100E00006084E8608974066870A48082C2AFC2AA58
:100E1000EEF974011212377F08021163C082C08399
:100E2000900391E0700512087A801E900392E060B2
:100E300015A28F500BE5F98A828B83F07A0180022C
:100E40007A007B00800312096D020D3AC082C083D4
:100E5000900391E070051208C18003120A03020D8D
:100E60003AC0E074F21210AC900001E064CD70055D
:100E7000122013802AE064F57024E5C1C28BC0E023
:100E8000900415E0F8749428F582E43403F583D0D7
:100E9000E0F0900415120AF34005E4F08001007FB1
:100EA0000102110BC0E074F21210AC900001E0647A
:100EB000CD700512203B800BE064F57005120943EC
:100EC00080010080DA74F6121046890A740F550A00
:100ED000F508750900740B7808121296EA2400F8D8
:100EE000EB3480F9E82400E93509F985C709A2AF98
:100EF000E433F508C2AFE50AC4540FFAE5C754F865
:100F00004AF5C7740A121339E0FAA3E0FB801C8883
:100F1000828983E08C828D83F088828983A3A88272
:100F2000A9838C828D83A3AC82AD83EAFEEBFFEEB6
:100F300024FF1AEF34FFFBEE4F70D48509C7E50894
:100F4000A2E092AF7F0302116374F7121046ED9096
:100F50000389F0ECA3F0A37462F0A37473F0A3E030
:100F6000541FF07409121339E0F508A3E0F509E500
:100F700008333354FC90038EF0740678081212F094
:100F8000E50890038DF090038F7412F0A37442F083
:100F900075D1FE75D601EA906271F0EBA3F0906214
:100FA00070E0D2E1F0E0A2E740FB7F02021163C0F3
:100FB00082C083E9C333906272F0906270E0D2E045
:100FC000F0D083D08222080808EAC0E0EBC0E086B7
:100FD000F0E7A4FA180986F0E7A42AFA180986F0BF
:100FE000E7A42AFA180986F0E7A42AFA1986F0E796
:100FF000A4FBE5F02AFA190886F0E7A42BFBE5F03C
:101000003AFA190886F0E7A42BFBE5F03AFA18182B
:101010000986F0E7A4C5F02BFBE43AFA1908E7C506
:10102000F0C6A426F6E5F03BFBE43AFA1886F0E7B2
:10103000A4F6E5F00826F6E43B08F6E43A08F6D014
:10104000E0FBD0E0FA222518C582C0E0E51934FFA4
:10105000C583C0E0E518C3958224F910AF088583E5
:10106000198582188008858319858218D2AFCEF041
:10107000A3E520F0A37808E608F0A3DEFAEFF0A3DA
:10108000E58124FBF8E608F0A3E608F0A30808E6EB
:1010900008F0A3E608F0A315811581D0E0FED0E0AA
:1010A000F815811581E8C0E0EEC0E022C0D0251817
:1010B000C582C0E0E51934FFC583C0E0E518C395DB
:1010C0008224F310AF0885831985821880088583F0
:1010D00019858218D2AFC8F0A3E9F0A3EAF0A3EB18
:1010E000F0A37908E709F0A3D8FAECF0A3EDF0A398
:1010F000EEF0A3EFF0A3D0E0F0A3D0E0F0A3D0E0B7
:10110000F0A3E520F0A3E5F0F0A32285198385186C
:1011100082E0C0E0A3E0F9A3E0FAA3E0FBA3780833
:10112000E0F608A3DFFAE0FCA3E0FDA3E0FEA3E005
:10113000FFA3E0C0E0A3E0C0E0A3E0F5D0A3E0F5AA
:1011400020A3E0A3F5F010AF0885831985821880ED
:1011500008858319858218D2AFD082D083D0E0F879
:10116000D0E032851983851882E0A3FEE0A3F52044
:101170007808E0A3F608DFFAE0A3FFE0A3C0E0E010
:10118000A3C0E0E0A3C0E0E0A3C0E010AF08858208
:10119000188583198008858218858319D2AFD0837A
:1011A000D08222E490030278A179038002F0A3D8D0
:1011B000FCD9FA7AA27B0590008E782979018015F6
:1011C000E493A3AD82AE838A828B83F0A3AA82AB21
:1011D000838D828E83D8E9D9E7120AFA121343C0AD
:1011E00008C3E096F50808A3E096420808A3E09635
:1011F000420808A3E09645087001D3D00822C582B2
:101200002518C582C583351910AF07F519858218D1
:101210008007F519858218D2AFC583222518F5827B
:1012200010AF08F518400C15198008F51840021584
:1012300019D2AF8519832200C0D0251810AF08F548
:1012400018500C05198008F51850020519D2AFD0B6
:10125000D0226016080808C6C313C618C613C618DD
:10126000C613C618C613C6D5E0EA22251810AF0863
:10127000F518400C15198008F51840021519D2AF61
:1012800022E066701008A3E066700A08A3E06670AA
:101290000408A3E06622700422600D18C6C333C69A
:1012A00008C633C6D5E0F41822E627F60809E63763
:1012B000F60809E637F60809E637F622E026F608CA
:1012C000A3E036F608A3E036F608A3E036F622746B
:1012D000028000C0E0F40412121CD0E012132C2291
:1012E0002518FAE43519FB222518FCE43519FD22EE
:1012F000600C08C6C313C618C613C6D5E0F4227521
:10130000D00075813F7518027519030211A3E6F02C
:1013100008A3E6F008A3E6F008A3E6F022E0F6084A
:10132000A3E0F608A3E0F608A3E0F622CAC0E0E6D0
:10133000F0A308DAFAD0E0FA222518F582E435198C
:10134000F5832200000080FBFFFFFFFFFFFFFFFF90
:10135000FFFFFFFFFFFFFFFFFFFFFFFFFFFFFFFF9D
:10136000FFFFFFFFFFFFFFFFFFFFFFFFFFFFFFFF8D
:10137000FFFFFFFFFFFFFFFFFFFFFFFFFFFFFFFF7D
:10138000FFFFFFFFFFFFFFFFFFFFFFFFFFFFFFFF6D
:0A1FF600CA05094338860000000008
:020000040003F7
:01FFF000F020
:020000040000FA
:10200000022BFD0221F9FFFFFFFFFFFFFFFFFFFF94
:10201000FFFFFFFFFFFFFFFFFFFFFFFFFFFFFFFFD0
:10202000FFFFFFFFFFFFFFFFFFFFFF0229EDFFFFA5
:10203000FFFFFF0228B6FFFFFFFFFFFFFFFFFFFFCD
:10204000FFFFFF022741FFFFFFFFFFFFFFFFFFFF33
:10205000FFFFFF022139FFFFFFFFFFFFFFFFFFFF31
:10206000FFFFFFFFFFFFFFFFFFFFFFFFFFFFFFFF80
:10207000FFFFFFFFFFFFFFFFFFFFFFFFFFFFFFFF70
:10208000FFFFFF02218DFFFFFFFFFFFFFFFFFFFFAD
:102090001020102001965118000200001C30000092
:1020A0000000B62F9A30EC2F64300000E02F0000C3
:1020B0000000000000000000000000000000000020
:1020C00000000000000006FFFFFF01010400041AE9
:1020D000000000E8030000FFFF7F1A03E803000090
:1020E00064006400B801A0BB0D00A0BB0D0002029B
:1020F000000800000502070401051E020514020184
:102100003C0A0101080803B80B02803E0102FEFFF1
:10211000E8030A050001FFFF0A1401E001010503BD
:102120000101FF0F10FEFF334C00000000A54A0024
:10213000000000FF000000FF00C0E074F212250C58
:10214000A2AFE433F508D2AFAFA7AEA1EE5F541053
:102150006006122D4C75A1EFEE5F54086008122D39
:102160005275A1F78023EEA2E092F0EFA2E082F098
:102170005017906198E0F8900726E0C398A2D265C6
:10218000D0335002E8F075A1FEE5088063C0E0742A
:10219000F212250CA2AFE433FED2AF9061A4E0F8B6
:1021A000759B00E59158540860087591F7122D9AB7
:1021B0008023E59158541060087591EF122DA0808E
:1021C00014E591A2E092F0E8A2E082F05007E0C2AC
:1021D000E0F0122EEA9061A3E0F8E5E958540460BB
:1021E0000E122EC075E9FB906193E0A2E640F2EE7C
:1021F000A2E092AF7F0102256BC0E074F212250CC1
:10220000A2AFE433FED2AF9061A5E0F8E5BF585429
:1022100004600675BFFB122F0280D4C3E498F8E473
:1022200099F912225C8026C3E49AFAE49BFBE92028
:10223000E7E912225CE498F8E499F922C3E498F8FB
:10224000E499F912225CE498F8E499F9C3E49AFA63
:10225000E49BFB22EB20E7CFE920E7E0B90010BBCD
:102260000008E88AF084F8AAF022E4FBC8FA22EB1E
:1022700070227B10C833C8C933C9335007C39AC30F
:10228000DBF280069A50012ADBEAC833F4C8C9336E
:10229000F4C9FA2275F008E4C833C8C933C933C990
:1022A0009AC99B5004C92AC93BD5F0ECFBC833F44A
:1022B000C8E4C9FA2274F51224A674FA122A8075A9
:1022C000080475090078081229A47404122A4A7AAD
:1022D000F87B0779031239D674021229D29080BB99
:1022E0007808122C0D7402122C8E7808122AAB700A
:1022F0004875080275090078081229A47402122A88
:102300004A7AF67B0779031239D674021229D285EC
:102310001882851983E0F47003A3E0F4601B85182C
:1023200082851983E0F8A3E08882F5837402F0A324
:10233000F0A37469F0A374A5F0C2AF75D69F020034
:102340000074061229D27F04022784080808EAC014
:10235000E0EBC0E086F0E7A4FA180986F0E7A42ACB
:10236000FA180986F0E7A42AFA180986F0E7A42AE1
:10237000FA1986F0E7A4FBE5F02AFA190886F0E7D7
:10238000A42BFBE5F03AFA190886F0E7A42BFBE54D
:10239000F03AFA18180986F0E7A4C5F02BFBE43AE6
:1023A000FA1908E7C5F0C6A426F6E5F03BFBE43AC7
:1023B000FA1886F0E7A4F6E5F00826F6E43B08F6FE
:1023C000E43A08F6D0E0FBD0E0FA22E4CFC0E0E443
:1023D000CEC0E0E4CDC0E0E4CCC0E075F020E6265D
:1023E000F608E633F608E633F608E633F61818186A
:1023F000EC33FCED33FDEE33FEEF33FFC3EC970916
:10240000ED9709EE9709EF97191919400FFFEC970F
:10241000FC09ED97FD09EE97FE191906D5F0BFEC02
:10242000F709EDF709EEF709EFF7191919D0E0FCF4
:10243000D0E0FDD0E0FED0E0FF222518C582C0E04C
:10244000E51934FFC583C0E0E518C3958224F81070
:10245000AF088583198582188008858319858218BD
:10246000D2AFCEF0A3E520F0A37808E608F0A3DE13
:10247000FAEFF0A3E58124FAF8E608F0A3E608F005
:10248000A3E608F0A30808E608F0A3E608F0A31501
:10249000811581D0E0FED0E0F8158115811581E825
:1024A000C0E0EEC0E0222518C582C0E0E51934FF87
:1024B000C583C0E0E518C3958224F910AF08858371
:1024C000198582188008858319858218D2AFCEF0CD
:1024D000A3E520F0A37808E608F0A3DEFAEFF0A366
:1024E000E58124FBF8E608F0A3E608F0A30808E677
:1024F00008F0A3E608F0A315811581D0E0FED0E036
:10250000F815811581E8C0E0EEC0E022C0D02518A2
:10251000C582C0E0E51934FFC583C0E0E518C39566
:102520008224F310AF08858319858218800885837B
:1025300019858218D2AFC8F0A3E9F0A3EAF0A3EBA3
:10254000F0A37908E709F0A3D8FAECF0A3EDF0A323
:10255000EEF0A3EFF0A3D0E0F0A3D0E0F0A3D0E042
:10256000F0A3E520F0A3E5F0F0A3228519838518F8
:1025700082E0C0E0A3E0F9A3E0FAA3E0FBA37808BF
:10258000E0F608A3DFFAE0FCA3E0FDA3E0FEA3E091
:10259000FFA3E0C0E0A3E0C0E0A3E0F5D0A3E0F536
:1025A00020A3E0A3F5F010AF088583198582188079
:1025B00008858319858218D2AFD082D083D0E0F805
:1025C000D0E032122C83B90003022602E49004D139
:1025D000788B791A8002F0A3D8FCD9FA7A5B7B1E3B
:1025E00090209478A679018015E493A3AD82AE8300
:1025F0008A828B83F0A3AA82AB838D828E83D8E9F3
:10260000D9E77582D67583A6740612297E7582A0D5
:10261000758348740012297E75F0108E1A8F1B8501
:10262000821F85831E851882851983E0CEA3E0CFA3
:10263000851F82851E83EBC9EAC8EDCBECCAC3E8CF
:1026400033C8E933C9EA33CAEB33CBC3EA9EF51D7D
:10265000EB9FF51CB35004AB1CAA1DEC33CCED333F
:10266000CDD5F0DAAE1AAF1B22D083D082ECC0E019
:10267000EDC0E0E493A3FCE493A3FDED4C600D12E8
:1026800027C4EC24FFFCED34FFFD80EFE493A3FCB2
:10269000E493A3FDED4C600D122861EC24FFFCEDEA
:1026A00034FFFD80EFD0E0FDD0E0FCE493A3C0E078
:1026B000E493C0E022851983851882E0A3FEE0A39D
:1026C000F5207808E0A3F608DFFAE0A3FFE0A3C056
:1026D000E0E0A3C0E0E0A3C0E0E0A3C0E0E0A3C06E
:1026E000E010AF08858218858319800885821885D7
:1026F0008319D2AFD083D082022984D083D082E9DB
:10270000C0E0E493A3C386F0C5F095F0F908E49324
:10271000A386F0C5F095F0700BE493A3C399400530
:10272000E9048002A3E475F002A42582F582E5F0B5
:102730003583F583D0E0F9E493A3C0E0E493C0E0EF
:1027400022C0E074F212250CA2AFE433FED2AFC275
:10275000C0901B2AE0700BE5D1A2E4501D122CB6EC
:102760008018E5D1A2E3500675D1F71247BCE5D138
:10277000A2E4500675D1EF1247B0EEA2E092AF7F0F
:102780000102256B851983851882E0A3FEE0A3F57D
:10279000207808E0A3F608DFFAE0A3FFE0A3C0E09A
:1027A000E0A3C0E0E0A3C0E0E0A3C0E010AF088574
:1027B00082188583198008858218858319D2AFD045
:1027C00083D08222C0E0C3E49396087401939618E4
:1027D000400FE493667008087401936618700070E7
:1027E00019A3A3C3E49396087401939618A3A34076
:1027F0000DD0E0D0E0D0E00226A5A3A3A3A3A3A31D
:10280000D0E0227404800474028000CCC0E0EDC0EB
:10281000E0E518C39CCCAD1950011D10AF068C1813
:102820008D1980068C188D19D2AF122900D0E0FDC9
:10283000D0E0FC2274028000CCC0E0EDC0E0E518DE
:10284000C39CCCAD1950011D10AF068C188D19809A
:10285000068C188D19D2AF1228DED0E0FDD0E0FC36
:1028600022C0E0C0F088F0E4936670080874019319
:1028700066187000A8F0A3A3700BD0F0D0E0D0E0F1
:10288000D0E00226A5A3A3D0F0D0E022D083D0824E
:10289000CCC0E0E493A3600612295F1470FAE493BD
:1028A000A36006122A6A1470FAD0E0FCE493A3C075
:1028B000E0E493C0E022C0E074F212250C758B00B6
:1028C000C2E8901B2AE0700E7A007B109007BCE0F3
:1028D000F91231CC8003123A2A7F0102256BCAC05B
:1028E000E0E493A3C582CCC582C583CDC583F0A3A4
:1028F000C582CCC582C583CDC583DAE5D0E0CA22C6
:10290000CAC0E0E0A3C582CCC582C583CDC583F033
:10291000A3C582CCC582C583CDC583DAE6D0E0CA23
:10292000227009080808226016181818C6C333C692
:1029300008C633C608C633C608C633C6D5E0EA2281
:10294000C008C3E096F50808A3E096420808A3E093
:1029500096420808A3E09645087001D3D00822C02B
:10296000E0E493A3D39C5010E493A3C39C400AD00B
:10297000E0D0E0D0E00228A9A3A3A3D0E022C09F2A
:10298000F59FE473D09F22D083D082C09FE493C090
:10299000E0740193C0E0740293F59F227404800AEE
:1029A00074038006740280027401C0E0F4041229EA
:1029B000B7D0E0122C3A222518F58210AF08F5188E
:1029C000400C15198008F51840021519D2AF851969
:1029D000832200C0D0251810AF08F518500C051937
:1029E0008008F51850020519D2AFD0D022C0E0C03F
:1029F000D0E8C0E0A8A8D2AFC2C7E8A2E792AFD0A3
:102A0000E0F8D0D0D0E032BB0102E722C082C08320
:102A100089828A83BB0003E08002E493D083D08262
:102A2000226016080808C6C313C618C613C618C6FF
:102A300013C618C613C6D5E0EA222518F8E43519DE
:102A4000F9222518FAE43519FB222518FCE435197A
:102A5000FD22C3E0C696F608A3E0C696F608A3E0FA
:102A6000C696F608A3E0C696F622C0E0E493A36CEF
:102A70007009D0E0D0E0D0E00228A9A3A3D0E022E2
:102A8000251810AF08F518400C15198008F51840E6
:102A9000021519D2AF22E76670100809E766700ABE
:102AA0000809E76670040809E76622E06670100806
:102AB000A3E066700A08A3E066700408A3E066223B
:102AC000C3E09608A3E09608A3E09608A3E096A2C8
:102AD000D265D03322C3E096F008A3E096F008A3B5
:102AE000E096F008A3E096F022C3E697F60809E620
:102AF00097F60809E697F60809E697F622C3E493E5
:102B0000960874019396087402939608740393963A
:102B100022E493F608740193F608740293F608749D
:102B20000393F622E647F60809E647F60809E64762
:102B3000F60809E647F622E026F008A3E036F0089A
:102B4000A3E036F008A3E036F022E627F60809E60F
:102B500037F60809E637F60809E637F622E657F6AB
:102B60000809E657F60809E657F60809E657F62277
:102B7000E056F608A3E056F608A3E056F608A3E0F0
:102B800056F622E026F608A3E036F608A3E036F66D
:102B900008A3E036F622E056F008A3E056F008A3BA
:102BA000E056F008A3E056F022700422600D18C62B
:102BB000C333C608C633C6D5E0F41822E4C396F67C
:102BC00008E496F608E496F608E496F622C6F4C6FB
:102BD00008C6F4C608C6F4C608C6F4C622C3E796FB
:102BE0000809E7960809E7960809E79622C3E096E0
:102BF00008A3E09608A3E09608A3E0962275D0000B
:102C000075813F7518D1751904000225C3E0F608D7
:102C1000A3E0F608A3E0F608A3E0F622600C08C6DD
:102C2000C313C618C613C6D5E0F422E6F008A3E61F
:102C3000F008A3E6F008A3E6F022CAC0E0E6F0A39D
:102C400008DAFAD0E0FA22ECF0A3EDF0A3EEF0A35C
:102C5000EFF022E0FCA3E0FDA3E0FEA3E0FF22E012
:102C6000FAA3E0FBA3E0FCA3E0FD22E0F8A3E0F977
:102C7000A3E0FAA3E0FB22E8F0A3E9F0A3EAF0A3C3
:102C8000EBF022E5C754F84401F5C7790122251875
:102C9000F582E43519F5832212298741EB051229C3
:102CA0008709EC051229877EEC0512298781ED053D
:102CB00012298722EF0512298787EF05122987D26B
:102CC000EF05122987E3EF05122987F2EF05122994
:102CD0008708F0051229871BF00512298726F005C1
:102CE00012298737F0051229874AF00512298776BD
:102CF000F005122987F8F2051229874FF3051229EA
:102D0000878FF305122987A3F305122987BCF305E2
:102D1000122987ADF4051229875EF50512298772FD
:102D2000F5051229872FAA0612298753AA06122908
:102D3000876CAA061229879EAA06122987CEAA06A0
:102D4000122987FBAA061229875DAB061229876C18
:102D5000AB0612298776AB0612298783AB061229A8
:102D600087E89A06122987089B06122987479B063F
:102D7000122987629B06122987819B06122987E701
:102D80009B06122987F09B061229874D9C06122963
:102D900087719C06122987329D061229873F9D065E
:102DA000122987509D061229876AFF0512298782FA
:102DB000FF05122987AEFF05122987E6840612292E
:102DC000874086061229874E860612298761860665
:102DD0001229877686061229878B86061229879EF6
:102DE00086061229871287061229877787061229F5
:102DF00087198806122987DD8806122987ED88063B
:102E0000122987FC8806122987F0B3061229871435
:102E1000B4061229873CB40612298764B406122925
:102E200087F39F061229871AA00612298739A00660
:102E3000122987A1A0061229871498061229872D26
:102E400098061229873998061229874D9806122963
:102E5000876B98061229877598061229877F98062E
:102E60001229879298061229871F99061229878EA0
:102E70009906122987BD99061229870B9A061229ED
:102E8000875A9A06122987759A061229877F9A0609
:102E9000122987909A06122987D39A061229879DAC
:102EA000FF0312298798D205122987C2D205122959
:102EB00087DFD205122987F2D20512298708D305A8
:102EC00012298766D30512298799D3051229878A83
:102ED000D705122987EAD8051229871DD905122995
:102EE0008767D905122987BADA05122987E2DA0538
:102EF000122987F7DA0512298707DB051229874B84
:102F0000DB05122987A6DB05122987B6DB05122906
:102F100087E8AC0612298702AD061229872AAD067A
:102F200012298743AD0612298767AD0612298785C6
:102F3000AD061229879CAD06122987CAAD06122953
:102F400087E5AD06122987BAFF021229871E91066E
:102F50001229872E91061229873392061229876536
:102F600092061229878B9206122987AE92061229A1
:102F700087C59206122987FF920612298768930651
:102F8000122987AA9306122987E993061229871A1C
:102F90009406122987519406122987358D06122925
:102FA000879A8D06122987408E06122987778E060A
:102FB000122987F2F10412298789F204122987B6AF
:102FC000F404122987A1F7041229872FF904122982
:102FD000879BF904122987EAFC0412298735FE042D
:102FE00012298718AE0612298763AE061229878632
:102FF000F5051229872CF805122987D1F805122921
:1030000087FDF8051229872BF90512298760F90534
:1030100012298788F905122987E8F905122987FA04
:10302000AD0512298779B20512298761B4051229E5
:10303000878AB5051229876AB60512298722B8053D
:10304000122987C5B90512298791BA05122987E582
:10305000BA05122987A5A406122987B0A406122949
:1030600087D1A406122987A49305122987B9980548
:10307000122987279A05122987E39B05122987E0E1
:103080009C05122987109E05122987289F05122961
:103090008708A00512298725BA041229875DBA047A
:1030A00012298700C404122987E1C4041229871F4A
:1030B000C60412298766C7041229871CC80412296E
:1030C00087F4C80412298785C9041229877ECA0497
:1030D00012298778CB041229871ACC041229874435
:1030E000CC04122987F1CD0412298761CE0412295C
:1030F000877ACE04122987D1CF0412298782D0047F
:1031000012298704D104122987B0D10412298720FB
:10311000D204122987BCD20412298738D304122979
:103120008756D30412298758D4041229870ED50450
:10313000122987B4D504122987C2A806122987EC60
:10314000A806122987FFA90612298702AA061229B2
:103150008747B3061229878DB306122987CFB30696
:10316000122987DFB3061229873E79001229877C4E
:103170007900122987E57900122987027A0012293D
:10318000871B7A00122987CD7A00122987D67A0008
:103190001229871B7B00122987517B00122987681F
:1031A0007B00122987DA7B00122987677C001229AD
:1031B000879D7C00122987F47C00122987587D00A6
:1031C0001229877B7D00122987DF7D001229873B2A
:1031D0007E00122987767E00122987AB7E00122995
:1031E00087BD7E00122987CF7E00122987077F00C6
:1031F000122987537F00122987917F001229879B0C
:10320000FA05122987DBFB05122987FEFB05122927
:10321000870FFC0512298704FE0512298724FE0565
:1032200012298765A2061229879BA206122987E325
:10323000A2061229873FA4061229870080051229B9
:10324000873181051229876B81051229872A830519
:10325000122987548305122987E1850512298721C0
:103260008605122987B887051229874B88051229F8
:1032700087A388051229874689051229877E890533
:10328000122987C089051229872F8B05122987816A
:103290008C05122987A48E05122987D28E05122942
:1032A00087F98E05122987028F05122987528F050B
:1032B000122987E48F05122987D49205122987578E
:1032C000930512298789B4061229879FB40612290B
:1032D0008799FB03122987AFFB0312298754FC034C
:1032E00012298793FC03122987B0FC03122987E176
:1032F000FC031229872EFD0312298761FD03122981
:10330000879CFD0312298788FF031229874CB0068A
:10331000122987A1B006122987ECB0061229873935
:10332000AF06122987ABAF06122987E9AF0612292B
:10333000872AB006122987E6DB05122987ECDB0510
:103340001229872CDC051229871EDE051229874EDB
:10335000DE05122987BDDE051229878BDF051229BC
:1033600087CCDF05122987FADF0512298784E0055B
:103370001229879BE005122987A8E005122987B248
:10338000E0051229874EE20512298743E305122939
:10339000878CE30512298777F7011229878DF701BA
:1033A00012298720F8011229874CF9011229874137
:1033B000FA01122987DEFA011229871EFB01122960
:1033C000879CFB01122987F9FB0112298709FC015F
:1033D00012298730FC0112298783FC01122987F406
:1033E000FD01122987F9FD0112298719FE01122911
:1033F00087FFDA0212298757DB02122987FEDB02D8
:1034000012298771DD021229874BDE0212298708F3
:10341000DF021229871FDF021229876EDF021229BD
:1034200087D2DF0212298722E00212298735E002C3
:1034300012298796E002122987EFE002122987837A
:10344000E30212298787E402122987C2E4021229C3
:103450008716E502122987B3E702122987F9E702E6
:103460001229876CE802122987B6E8021229878A96
:10347000E902122987CDE902122987E7E902122918
:10348000872EEA021229874EEA02122987F3EA02FE
:10349000122987D7EB02122987E2EB021229873023
:1034A000EC0212298785EC02122987CCEC02122942
:1034B0008730EE021229874BEE02122987D2F002E2
:1034C00012298700F102122987FFF10212298723AE
:1034D000F20212298792F20212298755F302122969
:1034E0008790F302122987F6F3021229870BF5025F
:1034F00012298753F5021229875DF5021229876088
:10350000F5021229879CF502122987AFF5021229CC
:103510008738F60212298761F60212298774F602AB
:10352000122987A0F602122987C7F602122987EB13
:10353000F60212298764F702122987D6F7021229A8
:10354000870DF80212298710F8021229873FF80226
:1035500012298755F80212298770F8021229879ECE
:10356000F802122987BEF80212298707F9021229E8
:103570008742F90212298749FA02122987A7FB021A
:10358000122987BDFB02122987D4FB02122987E684
:10359000FB021229875CB2061229876DB206122936
:1035A00087F6B206122987EDFF01122987C9E305C4
:1035B00012298718E405122987B8E5051229878C96
:1035C000E705122987CEE70512298799E805122910
:1035D00087A1E905122987C3E9051229871FEA0592
:1035E000122987A0EA051229878D4E00122987AF7C
:1035F0004E001229870750001229875050001229C7
:1036000087C65000122987445100122987A951000A
:10361000122987535200122987BE52001229876946
:10362000530012298700540012298745540012299B
:10363000875458001229875B5A001229878E5A0036
:10364000122987E05A00122987E35D001229875F5B
:103650005E0012298717600012298749610012292C
:1036600087616200122987D96200122987B9630035
:10367000122987246400122987386400122987FFE1
:1036800064001229872F66001229874A68001229D0
:1036900087426A00122987296B00122987BF6D00B3
:1036A000122987606E00122987606F00122987C275
:1036B0007200122987D27200122987187400122909
:1036C00087B57400122987DF75001229877076008C
:1036D0001229879D7700122987E2770012298776C1
:1036E00078001229875BD604122987FBD604122999
:1036F0008765D7041229877ED7041229870DD8043D
:1037000012298751D80412298770D904122987AC4D
:10371000D9041229871FDA041229876ADA041229C8
:1037200087C9DA0412298773DB041229875CDE0457
:1037300012298779DF04122987F6DF04122987B757
:10374000E10412298757E204122987F6E2041229BC
:103750008759E304122987CEE304122987DDE404A4
:10376000122987BEE504122987F4E5041229872768
:10377000E604122987DBE60412298707E7041229E9
:103780008782E70412298705E90412298780EA0461
:10379000122987D5EB0412298748ED041229875492
:1037A000EE04122987FBEE0412298769EF0412291F
:1037B0008781F004122987ACDA0312298717DB030B
:1037C0001229875FDB03122987A3DB031229870DE8
:1037D000DC0312298756DC0312298791DC031229A6
:1037E000872BDD0312298785DD03122987DFDE039E
:1037F00012298768DF0312298792DF03122987992C
:10380000E003122987A8E103122987DAE1031229CC
:1038100087CAE203122987DBE203122987F3E20356
:10382000122987D4E503122987F1E503122987C4F9
:10383000E603122987EEE60312298705E70312291A
:10384000872BE70312298762E70312298782E703A0
:10385000122987B4E703122987D3E703122987B314
:10386000E8031229870BE90312298781EA03122949
:10387000870EEB0312298732EB0312298749EB03EA
:1038800012298714EC03122987B7EC03122987DD6C
:10389000EC03122987FCED031229871BEE03122982
:1038A000879CEE0312298709EF031229874DEF0346
:1038B000122987DBEF0312298746F003122987F8C4
:1038C000F003122987E8F203122987C0F3031229B3
:1038D0008712F4031229870CF50312298719F603BE
:1038E0001229872EF7031229873CF7031229870C28
:1038F000F803122987ACF803122987F0F80312297C
:103900008705F90312298705FA03122987A8FA0304
:1039100012298700FB03122987A99406122987E23E
:103920009506122987A896061229870C9706122950
:1039300087809706122987358906122987538906B9
:10394000122987978906122987BD8906122987E3DC
:103950008906122987FB8906122987138A061229EC
:10396000872B8A06122987968A06122987D88A0603
:10397000122987ED8A06122987F48B061229870FF0
:103980008C06122987188C06122987218C06122989
:10399000872A8C06122987348C06122987B18C0657
:1039A0001229870080061229871C8406122987386D
:1039B00084061229873D840612298748A706122902
:1039C0008718FC021229872EFC02122987B4FD02F7
:1039D000122987FDFD021229875AB1061229875A3A
:1039E000FF0212298789FF021229879BFF021229F1
:1039F000878DAB061229877E9D06122987DA9D06E0
:103A0000122987109E06122987799E061229879D02
:103A10009E06122987B29E06122987D29E06122977
:103A200087F29E06122987029F06122987199F0690
:103A3000122987459F06122987D4EA05122987BDD6
:103A40007F001229870080021229875780021229DD
:103A500087C380021229874F8102122987058202BB
:103A60001229874D820212298766820212298789CC
:103A70008202122987AB8202122987E98202122967
:103A800087388302122987638302122987C1830240
:103A90001229876884021229871085021229878CCF
:103AA0008502122987598602122987A086021229C7
:103AB00087EC8602122987748702122987AD870254
:103AC0001229870388021229871F88021229874E2C
:103AD00088021229875A8A02122987888B021229A2
:103AE00087B48B02122987E88B02122987098C027E
:103AF000122987188C02122987238C02122987D257
:103B00008C02122987428D02122987CD8D0212293B
:103B100087D58D02122987428E021229877E8E0256
:103B2000122987448F021229871790021229876C65
:103B300090021229870B910212298765910212299E
:103B400087AA910212298743940212298786950237
:103B500012298770980212298754990212298738EE
:103B60009A021229875D9A021229876E9A021229F7
:103B700087E09A02122987779B02122987EB9B0222
:103B8000122987DB9C02122987009D0212298718BF
:103B90009E02122987369E02122987529E021229FE
:103BA00087C59E02122987D49E021229875C9F0234
:103BB00012298759A00212298766A0021229876F4D
:103BC000A00212298751A2021229877DA30212297D
:103BD000878DA302122987C8A40212298747A5024C
:103BE00012298778A602122987B4A6021229878E85
:103BF000A8021229874BAC021229875FAC02122956
:103C00008769AC0212298773AC021229877DAC0246
:103C100012298787AC02122987A0AC02122987AA31
:103C2000AC0212298721AD021229872CAD0212297C
:103C3000875BAD0212298783AD021229878EAD0200
:103C4000122987F3AD02122987FDAD0212298708D8
:103C5000AE021229872CAE0212298750AE02122919
:103C600087C2AE021229870BAF0212298727AF0243
:103C700012298798AF02122987E4AF021229872DF3
:103C8000B0021229876BB002122987ECB002122908
:103C90008793B10212298758B302122987BDB30254
:103CA000122987EBB40212298711B502122987590C
:103CB000B60212298793B90212298791BB021229F1
:103CC000875CBD02122987F5BD02122987F6BF0263
:103CD000122987ABC002122987E4C0021229875437
:103CE000C1021229875EC10212298787C3021229E5
:103CF000878AC402122987C7C5021229871EC602F5
:103D0000122987C9C60212298779C802122987C6D3
:103D1000C902122987E6C9021229873BCA02122961
:103D2000873CCB0212298764CB02122987C3CB02BE
:103D3000122987BBCC0212298732CD02122987456E
:103D4000CE02122987B3CE02122987B2CF021229DE
:103D5000870CD20212298735D2021229879BD302FF
:103D60001229871DD50212298774D50212298722AC
:103D7000D602122987C7D6021229872AD70212290A
:103D800087E8D7021229877AD802122987D9D80260
:103D90001229871BD9021229874CD902122987A31D
:103DA000DA02122987008003122987328003122940
:103DB000876B800312298734820312298778820354
:103DC0001229874E8303122987AD8303122987C3E3
:103DD00084031229870F85031229879D87031229DF
:103DE00087818A03122987C88B03122987608C0375
:103DF0001229876C8C03122987B58C03122987F747
:103E00008D03122987ED8E03122987178F0312293C
:103E1000876D8F03122987C68F0312298739900374
:103E20001229876F9203122987F19303122987DCE5
:103E300094031229872696031229875E9803122974
:103E4000875B9B031229876A9B03122987FE9B03CA
:103E5000122987A99C03122987EC9C031229873514
:103E60009D03122987859D03122987E99D03122945
:103E7000875B9E03122987779E03122987A69E03DC
:103E8000122987E59E03122987E09F031229878F55
:103E9000A0031229870CA3031229873EA403122929
:103EA0008716A50312298798A503122987CDA90390
:103EB000122987FCA90312298757AA031229878A86
:103EC000AA0312298702AB0312298735AB031229F3
:103ED0008796AB03122987E6AB03122987B3AC039D
:103EE0001229876CAD0312298730AE03122987AAE5
:103EF000B0031229870CB2031229875DB30312297C
:103F00008781B40312298784B403122987B3B403C9
:103F1000122987ABB6031229876AB703122987993A
:103F2000B703122987B7B8031229877FB90312296B
:103F30008740BB03122987B0BB03122987E2BB036A
:103F400012298702BC0312298771BC031229876AD0
:103F5000BD031229878EBD0312298701BE031229D2
:103F6000872AC00312298789C003122987DDC0036D
:103F70001229870CC303122987EFC30312298777FD
:103F8000C4031229875BC503122987E5C5031229DB
:103F900087F9C5031229870DC60312298721C60395
:103FA00012298735C60312298762C6031229879210
:103FB000C6031229874DC80312298723C903122972
:103FC00087C7C9031229871CCA031229877FCA031E
:103FD000122987C8CA03122987EFCA03122987B793
:103FE000CB031229875DCC03122987E3CD03122965
:103FF000876ECE03122987B5CE0312298727CF03F8
:104000001229877CD00312298725D10312298759C9
:10401000D10312298771D10312298714D2031229DF
:104020008790D40312298738D60312298756D603DE
:1040300012298774D60312298740D7031229878E45
:10404000DA03122987348101122987768101122926
:1040500087E386011229872F870112298775870137
:10406000122987C688011229872B89011229876F97
:104070008901122987D58A01122987308E011229D8
:1040800087638F01122987F29A01122987829B0187
:104090001229876C9E01122987D19F01122987342A
:1040A000A00112298750A101122987BAA201122961
:1040B0008799A30112298707A60112298799A701C9
:1040C0001229872AA80112298749A901122987D60E
:1040D000A901122987E0A90112298708AA0112293A
:1040E00087ABAA0112298796AB011229875EAC0122
:1040F000122987EBAC0112298701AD011229871E15
:10410000AD0112298747AD0112298774AD0112292B
:1041100087B8AF011229878BB001122987CFB00170
:1041200012298751B101122987F2B101122987247E
:10413000B2011229876BB2011229879EB20112299E
:1041400087E2B20112298731B30112298736B30100
:1041500012298792B301122987D6B301122987C089
:10416000B40112298725B50112298783B5011229C7
:104170008702B6011229877AB9011229877DBA010F
:1041800012298713BC0112298756BF01122987F80B
:10419000BF0112298741C201122987FCC2011229DD
:1041A000873BC301122987FFC4011229871CC5015F
:1041B00012298725C5011229872EC50112298739A1
:1041C000C50112298758C5011229877CC701122908
:1041D00087D9C701122987E3C701122987EDC701D3
:1041E00012298750C801122987ACC801122987B942
:1041F000C9011229871ACA011229872BCB0112295A
:104200008774CB011229873ECC0112298755CD0135
:1042100012298719CE0112298765CF0112298769D2
:10422000D00112298762D1011229877AD10112297E
:1042300087B1D101122987BBD101122987C5D101CC
:10424000122987D0D101122987EED1011229873690
:10425000D20112298794D201122987BBD2011229D7
:1042600087CDD20112298776D301122987AFD301D6
:10427000122987E0D4011229873DD5011229872E02
:10428000D60112298764D601122987D4D6011229B2
:104290008750D701122987D1D801122987F8D9016F
:1042A000122987BADA0112298788DB011229870DC2
:1042B000DC01122987BCDC01122987A4DD01122947
:1042C000873DDE0112298719DF0112298781DF016D
:1042D00012298740E0011229879CE00112298700FA
:1042E000E101122987C6E101122987E9E1011229BA
:1042F00087A3E201122987C5E20112298726E3017B
:1043000012298756E5011229874FE601122987FBFA
:10431000E60112298718E90112298761E9011229AA
:1043200087ACE90112298708EA0112298766EA01A8
:104330001229878AEA01122987AEEA01122987E346
:10434000EA011229870BEB0112298750EB01122990
:1043500087AEEB0112298707EC0112298701ED01D5
:10436000122987ADEE01122987F2EE011229871B6F
:10437000EF01122987A4EF0112298717F0011229F2
:104380008725F00112298749F0011229879FF00142
:10439000122987BAF00112298775F101122987A124
:1043A000F101122987E4F10112298747F20112294C
:1043B0008757F40112298783F4011229873EF501FA
:1043C00012298722F601122987B6F60112298718C9
:1043D000C80512298750C80512298771C8051229F6
:1043E00087B3C80512298717C90512298721C9056E
:1043F00012298731C90512298768C9051229871131
:10440000CD05122987D9CE05122987BDD0051229DD
:10441000875FD105122987E9D105122987508004C9
:10442000122987F98004122987D88104122987E488
:1044300082041229870483041229872684041229FE
:1044400087D6850412298743860412298714870496
:104450001229871A8804122987928804122987CD85
:104460008804122987268904122987618904122960
:1044700087AA89041229873E8A04122987D48A04CC
:10448000122987A98B041229877C8C041229870A98
:104490008D04122987308D041229875D8D0412291D
:1044A000878E8D041229875B8E041229876B8E04F8
:1044B000122987BE8E04122987CB8E04122987D831
:1044C0008E04122987E18E04122987458F04122950
:1044D00087A38F04122987EE8F041229870990047D
:1044E0001229873090041229874D90041229875988
:1044F0009004122987EA9104122987039204122951
:10450000877F9204122987929204122987A292042B
:10451000122987469304122987B29404122987C569
:1045200095041229876596041229876F960412292B
:1045300087EE9604122987FF96041229873E970476
:104540001229876C970412298739980412298790B9
:104550009804122987C998041229871F99041229DF
:10456000873D99041229878B9904122987569A044A
:10457000122987A49A04122987F19A0412298774B0
:104580009B041229879E9B04122987D49B0412291D
:1045900087E39B04122987429C04122987BA9C0452
:1045A000122987FB9C041229874B9D0412298776C8
:1045B0009D04122987909D04122987AA9D0412291F
:1045C000877F9E04122987899E04122987C49E042E
:1045D000122987D49E04122987DD9E041229872E72
:1045E0009F04122987429F0412298764A00412297C
:1045F0008777A0041229878CA0041229871FA104A1
:1046000012298793A10412298738A204122987430B
:10461000A204122987A6A304122987C2A30412297F
:10462000870EA4041229877CA404122987AEA4044F
:10463000122987C8A40412298728A504122987C72C
:10464000A50412298712A60412298765A804122935
:1046500087FDA80412298774A904122987D1AB0405
:10466000122987E9AB04122987ECAB04122987F8D9
:10467000AB041229870CAC0412298714AC0412294C
:10468000874BAC041229873FAD04122987C9AD04BA
:104690001229874BAE04122987CBAE04122987A2B8
:1046A000AF04122987C4AF041229875DB004122910
:1046B00087BAB004122987BDB0041229872CB1042F
:1046C00012298778B2041229878BB304122987161E
:1046D000B40412298729B504122987F0B5041229D8
:1046E0008721B60412298747B60412298750B604D9
:1046F0001229877FB6041229872FB704122987DF72
:10470000B70412298752B804122987F5B804122970
:104710008768B904122987A7B904122987F0B90458
:10472000122987C9FF0412298785FF04122987737C
:10473000FF0412298763FF04122987E97F001229E9
:1047400087EAFF01122987B0B406122987A9B406A7
:1047500012298737C70512298784C605122987B809
:10476000C50512298714C405122987DDC30512293E
:1047700087AFC3051229875CC305122987B3C20519
:104780001229871BC205122987F5C105122987AA9C
:10479000C1051229877EC105122987F2C005122999
:1047A0008791C0051229874CC00512298767BF056C
:1047B000122987F5FF0412298785BE05122987E78C
:1047C000FF04122987DEFF04122987D5FF0412296E
:1047D00087D4FF05122987D1FF05122987B1FF056C
:1047E000122987E7FF011229872DBE051229879D0F
:1047F000BD0512298758BD0512298743B206122923
:10480000873CBD05122987EABB05122987ACBB0589
:1048100012298786BB05122987D09F061229870A8D
:10482000BB05122987DDB106122987C3AD05122900
:10483000877CAD051229871BAD05122987EEAC05D3
:10484000122987C4AC0512298790AC051229876804
:10485000AC0512298708AC05122987F2AB0512298D
:1048600087B7AB051229872EAB0512298775A705D7
:1048700012298733A505122987B6A2051229873E7A
:10488000A205122987EFA105122987DFA0051229A9
:10489000877CA1051229873DA10512298769FE029F
:1048A00000000080FBE4738F0001001E1B870001E5
:1048B000001D1B35000400A31E25000200A71E26B4
:1048C000000200A91E27000200AB1E28000100B54F
:1048D0001E29000100B61E84000400B71E860001D8
:1048E00000BB1E2A000100BC1E2B000100BD1E2CB7
:1048F000000100C11E2D000800011B2E000100C296
:104900001E2F000100C31E30000100C41E31000133
:1049100000C51E32000100C61E33000100C71E3450
:10492000000100C81E36000100C91E380001000940
:104930001B39000100C01E83000200DD1E63000160
:10494000001A1B64000100BE1E65000100BF1E6D41
:104950000001001B1B71000800F91A66000100DC51
:104960001E43000100CD1E44000200CE1E45000182
:1049700000D01E46000200D11E47000800121B484E
:10498000000100D31E4B000100D41E04000100DF13
:104990001EA1000100E21E37000100E11E88000197
:1049A00000E01E3C0001000A1B3D000100CA1E4938
:1049B000000200D51E670001001C1B4D000200D73D
:1049C0001E4E000100D91E4F000200DA1E3E0001FB
:1049D00000111B510001000B1B52000100CB1E53A4
:1049E000000100CC1E540001000C1B000000000060
:1049F000000001363601010001020100010301003F
:104A00000104010606050200000701003408010048
:104A10000F090401010D0100FF0E0800001702003C
:104A200000190100FF1A0100011B0100FE1C01001A
:104A3000081D0200001F01000120010001210200E9
:104A4000002301000F2402000026010001270100BD
:104A500008280200FF2A0100072B0102402C010058
:104A6000002D0100012E0100012F0100FF30010B7C
:104A70001D310800003A0100083B01000F3C010015
:104A8000013D0100FF3E0400004204000046040016
:104A9000004A0400004E04000052040000560400C6
:104AA000005A040000010371030103010301030123
:104AB00003010322030203010310030003000300A8
:104AC0000300030003000300034203000324030662
:104AD0000300030003040312032503230325032318
:104AE0000304030403000300030003440300030062
:104AF000032303000365032100350381030003053D
:104B000003000300030003000325032303010171D5
:104B100001010101011101010131010101010180C6
:104B200001100161013B0014006301730172016215
:104B30000143010001130106013D0135000401128A
:104B400001000100010001000104010401330133EF
:104B5000013C014401320136000001000165010001
:104B6000013500810100010501820183010001037B
:104B7000027102300160021102700201020202029F
:104B8000028002100261023A004100630273027265
:104B90000262024302000213023800000200020413
:104BA00002120200020002000200020402040237A4
:104BB0000037003C02440200023900000200026596
:104BC0000200023502810200020502820283020015
:104BD000020304710402046004110470040204025C
:104BE0000401040204100461040004140463047347
:104BF0000472046204430400041304060400040065
:104C000004040412040004000400040004510464B9
:104C10000000040004000444040004000400040034
:104C20000465040004350481046400050400048361
:104C300004000403007100300160001100700031B5
:104C40000220035004800010006100000014006383
:104C500000730072006200430000001300060000B1
:104C6000000000040012000000000000000000042A
:104C7000000400370037003C024400000000000040
:104C80000000006500000035008100000005000004
:104C9000008300000036000100060000000F000045
:104CA000000000000000000000000003FFFF000003
:104CB0000403FFFF0000FFFF0FF4010005C404031D
:104CC00020000100000B00000000000000000301B4
:104CD0000F000000000000000000000000000000C5
:104CE00000000000000000000000000000000000C4
:104CF00000000000002437130082361F0088361F92
:104D0000808E360100243702000A36030010360474
:104D100000163605001C36060028363000463631AF
:104D2000004036320052363300583635005E363495
:104D300000643636006A361100763614007C36156B
:104D4000003A36FFFF00000A0000000200000004E5
:104D500000000008000000100000002000000040DB
:104D600000000080000000000100000002000000C0
:104D700004000000080000001000000020000000F7
:104D8000400000018A4006C04008BA400BD84010DD
:104D9000543D0AEA4002904005AE400796400C722E
:104DA000400D7E40642C3BFF000007ECFDFDFDEC58
:104DB000DCDCCCBCACAC9C9C8C7C7C6C6C5C5C5CB3
:104DC0004C4C3C3C2C2C1C1C03EAF5E5D5D5C5B558
:104DD000A595958585757565655555454535352583
:104DE0002515150500160F00000B150B02000222F9
:104DF0000F3300000E5A6967426565416C6C69614A
:104E00006E6365303901030507090B0D0F000204BD
:104E100006080A0C0D0001191618161618230300AF
:104E2000303017181921301B1D1F3030301618195B
:104E300020231A1C1E3000393D3F373C3C362C44A1
:104E40002D00034A49434E181A2505020C0E020B89
:104E5000040B0A0708000F02040201010101090204
:104E6000E803000000BE040A0000E8030E00000092
:104E70007F001E1E050303000404010A0C1008280D
:104E800028000C010903010C05080608FFC082C0B8
:104E900083901A77E4F0A3F07C4D7D1C7AE47B19B3
:104EA00012332E123B5C123DA2123B62026431743B
:104EB000F512243A74F5122A80E9FF8A08EBFE8C79
:104EC00009E9705B74026A703E790812357A750AD6
:104ED00000780A1229A8E509F50A780A1229A8EE2D
:104EE000F50A780A1229A8901A00122803901EBB0E
:104EF000E0F97C127D1B901EDD125FFF123B867471
:104F0000071229D2024FD674016A6003024FDB797F
:104F10000812357A7B00EEFAF9123BC8024FD674BC
:104F2000016F600874026F6003024FDBEA60057472
:104F3000036A7047790212357A901EBBE0F9901A25
:104F400000122C5F123B74E9F8901A0FE0A2E340C4
:104F500010E9700D901A7BE004F064047003124FA6
:104F6000F5740365087071901A7CE0F9740129F0FA
:104F7000E9C394054062124FF5805D74016A705B6D
:104F800074016F790A702E12357A7401122C8EE436
:104F9000F07402122C8E7403F004122C8EE4F0A331
:104FA000F0A3F0A3F07408122C8EE4F0AA18AB1949
:104FB00012409C803612357A901EB11228037A0076
:104FC0007B20125A2A1229D2901EBBE0F9901A00B7
:104FD000122C5F123BAAE9F8E860109080E31228D7
:104FE000037A017B00125A2A1229D2740B1229D299
:104FF0007F030226B5901A00E4F0A374F8F0A374BE
:10500000FFF0A37407F02274F612243AE9FFEAFED7
:105010007AD1F91231A88A828B83E5824583702A7E
:105020007A027B0012318AEA4B700E7A107B009074
:105030001A04E0F91231CC80148A828B8374D1F087
:10504000EFA3F0EEF91231968003EFA3F00252B90C
:1050500074F712243A89089004D11275C0FF901E8B
:105060009EE0F47003A3E0F470319007BCE0901E62
:105070009EF0A3E4F080248E828F83A312614360AC
:105080000F8E828F83A3A3126140FAA9081235F212
:105090008E828F83126009E8FEE9FFEE4F70D89090
:1050A0001E9EE0F47003A3E0F4600A901E9EE0FAF6
:1050B000A9081235F21241AA9019CE12584E124187
:1050C000A47F010226B574F012243A890B8C0C756A
:1050D00009007508007410122C8E126009741212E7
:1050E0002C8E12682EFD8047125190F50EA3E0F52C
:1050F0000FAE08EE2EFEE433FFEA2EF582EB1264CB
:10510000D1650E7004A3E0650F7019AE09EE2EFE96
:10511000E433FFEC2EF582ED3FF583E50EF0A3E5D9
:105120000FF00509050AE50AC3950C40BB0508E523
:1051300008C3950B5005750A0080EBA90980007F14
:10514000080226B574F412243A890B7D00740C12FF
:105150002C8E12600980010DEDC3950B502E750A3F
:10516000008002050AE50AC39C50ECED25E0FEE450
:1051700033FFEA2EF582EB3F126A26125190650842
:105180007004A3E0650970DB790180027900801466
:10519000AE0AEE2EFEE433FFE82EF582E9125A1431
:1051A000221229D27F040226B574F412243A74F82C
:1051B000122A801264EC7003A3E069707BAC18AD16
:1051C000198E828B83A3A3125FFF123EC8E964018C
:1051D000701E7407122C8EE0640470387406122C52
:1051E0008EE064CF700A7405122C8EE0648C603DF2
:1051F000901A10E4F0A3F0750A0D750B1A780A12D4
:1052000029A4AC08AD09EEFAEFFB12372A7402129A
:1052100029D2803AE0645470D77406122C8EE06470
:10522000EF70CD7405122C8EE0644470C3901A1098
:10523000745FF0A3741180BE750A02750B80780A42
:105240001229A478081229A41252A21229D2740891
:105250000251A174F612243AEAFEEBFF1253E1FC6C
:10526000E439FD9019CEE06C7003A3E06D70177502
:10527000081A75091A78081229A4EEFA1237307440
:10528000021229D2801A750803750980780812293C
:10529000A48A08890978081229A41252A21229D2D4
:1052A0008017EE240E125A11FD7C801264D9123739
:1052B0004E74042274021229D27F020226B574F6BB
:1052C00012243A74FE122A80EAFEEBFF85188285CA
:1052D0001983E412536212661FFBECFA88828983F9
:1052E000A3A3E0F9750900750800600574FF6970F3
:1052F00005750882803E9019CEE06A7003A3E06BCA
:10530000701BAA18AB19124852E9FA851882851940
:105310008312683970037508838A098017901B1DF2
:10532000E06004640170057508818008E064027023
:105330000375088085188285198312682EFDA908D7
:10534000EEFAEFFB123736E50960148518828519ED
:10535000831268396009851882851983126E590293
:1053600052B4F0A3F01274992274F212243AEAFEB5
:10537000EBFF7508007509001253E1F50AE439F5F1
:105380000B1241AAEA650A7003EB650B7012124812
:1053900040E914F50879017A437B1A12483A8003F0
:1053A000750980EE240E1264CEF50C780C1229A833
:1053B000750C43750D1A780C1229A478081229A8C7
:1053C000780A1229A4E509F50878081229A81262BA
:1053D000CE1264CEF97A057B8012373C74070276D0
:1053E000FE1253E522EA2413F582E43FF583126DA1
:1053F000BA8882F583E0FAA3E0F8E4C8F9EA282243
:1054000074F612243AE9FF7E0080328A828B83E0B0
:10541000F508A3E0F8E4C8F9E50828E439F509EE51
:1054200025E0F8E433F9EC28F582ED39F583E50859
:10543000F0A3E509F0EA2402FA50010B0EEEC39F37
:1054400040C90252B974E812243A74FC122A808AC4
:10545000168B177511007402122C8EE4F0A31266DD
:10546000271253623517125A22F50B850A82F583EB
:10547000127864FEE439FF850A82850B83A3A3E0DA
:10548000FA850A82850B83A3A3A3E0F9EAF508E471
:1054900039F509EEFAEFFB124246E964016016EEB7
:1054A000FAEFFB124246E970389019CEE06E7003B5
:1054B000A3E06F602C1272001229A8E4F508F50928
:1054C00078081229A478081229A89019CE12280762
:1054D00075088078081229A812581C1229D2025780
:1054E000FB850A82850B83A3A3A3A3E0F510E50A3D
:1054F0002405F50A5002050BE51060281277757433
:1055000002122C8E12584E7402122C8E12683960C0
:10551000137402122C8E125812A9101236228A0A03
:105520008B0B8003751000850A82850B8312770F21
:105530006024127775851882851983EAF0A3EB122F
:10554000683FE8496010851882851983125812A9AE
:105550000F1236228003750F009004D18052850A05
:1055600082850B83A3A3A3A3A3A3A3A3E4F0A3F027
:10557000AA0AAB0B851482851583A3A3E0F81261F8
:1055800040F9123196851282851383E0C0E0A8119C
:10559000744328F582E4341AF583D0E0F00511A2B3
:1055A000005007AA12AB131232328514828515837C
:1055B000E0F514A3E0F515E51445157003025778DE
:1055C000851482851583A312614360DE851482856C
:1055D0001583A3A3A3A3A3A3A3A3E0A2E050CB8519
:1055E0001482851583A3A3A3A31268398514828529
:1055F0001583A3A3601E126144FA79018514828584
:105600001583A3A3A3A31258051248A58A128B13CE
:10561000D200800F125805A3A3A3E0F512A3E0F572
:1056200013C200E5124513700302559F851282854F
:105630001383A3E065087004A3E06509600F74FF9D
:105640006508700474FF6509600302559F85128226
:10565000851383A3A3A3A3A3A3A312280785128260
:10566000851383A3A3A3A3A3A3E0FC7404122C8E2D
:10567000125FFFA91012360474021229D2E9703C9D
:10568000851282851383A3A3A3A3A3A3A3A3A3A388
:10569000122807851282851383A3A3A3A3A3A3A320
:1056A000A3A3E0FC7402122C8E125FFFA90F123626
:1056B0000474021229D2E9700302559FE50F2510E8
:1056C000C333240AFA7B0012318A8A0A8B0BEA4B15
:1056D00070030255858A828B8374D2126A308A8263
:1056E0008B83A3A3E8F0A3E91276DEA3E51012787A
:1056F0006EE50FF0E510602CEA240AFAE4350BFBA6
:10570000850A82850B831258497402122C8E125816
:105710003C1229A0AC10EC2CFCE433FD126F3212C9
:1057200029D2800D8A828B83A3A3A3A3A3E4F0A331
:10573000F0E50F700302555EA810E828F8E433F98D
:10574000E50A28F8E50B39F9E8240AFAE439FB857B
:105750000A82850B83A3A3A3125849851882851951
:105760008312583C1229A0AC0FEC2CFCE433FD1240
:105770006F321229D2025570E511602512720012A3
:1057800029A875084375091A78081229A4E511F5A6
:105790000878081229A89019CE12280775080080E9
:1057A00029EEFAEFFB124246E9702A127200122922
:1057B000A875084375091A78081229A47508007895
:1057C000081229A89019CE12280778081229A812C1
:1057D000581C1229D27402122C8E12683960087477
:1057E00002122C8E126E598518828519831268391F
:1057F0006009851882851983126E5974041229D2A2
:105800007F100226B512580922E0F8A3E0F583883C
:105810008222E0FCA3E0FDAA0AAB0B22E5162402DB
:10582000FCE43517FDE516240FF582E43517F58302
:10583000E0F97A067B8012373C740722E0F50CA36E
:10584000E0F50D750E00780C22A3A3A3A3A3EAF044
:10585000A3EBF02274F112243A74F4122A808A081D
:105860008B09ECFEEDFF740B122C8E7403F0122AE0
:105870004212332E1263AD7403122A42123328E906
:10588000600A125A196010E06401600B8518828565
:10589000198374840259C58E828F83A3A3A3A3A303
:1058A000A3A3A3E06013F46010125A197016EE243B
:1058B000141264CE6003F4700B851882851983740A
:1058C000820259C5127584E064217002A3E060036E
:1058D00002599C851882851983748CF0125A1960BC
:1058E000030259867401122A4AEE240BFAE43FFBA4
:1058F000123ECEE960030259861235688A0A8B0B84
:10590000EA4B70030259C68E0C8F0D750E00780C91
:105910001229A07C157D00126F321229D2850882CF
:10592000850983A3A3E50A2415FCE4350BFD74095E
:105930001229001271B5C0E0E50A241E1259FED0EA
:10594000E0125E56C0E0E50A241F1259FED0E0F0D6
:10595000E50A24201259FE7405F0EE240BFE5001D6
:105960000FFAEFFB12477A7D007C007900EEFAEF28
:10597000FB1236F49080E31228037A007B10125A4F
:105980002A1229D28073125A061229A8125A3512E5
:105990003EB074011229D2E9702C8014125A0612FA
:1059A00029A8125A35123EB674011229D2E9700D97
:1059B000851882851983E4F01235388009851882AC
:1059C0008519837488F01271B5F50A780A1229A82E
:1059D0007401122A3A880A890B780A1229A4E50868
:1059E000240CF582E43509125A224480F50B780A1A
:1059F0001229A412638F1229D2740C026D48F58209
:105A0000E4350BF58322EE2414125A11F50A780AB4
:105A100022F582E43FF583E022EE2413125A11644A
:105A20000322F583E0F50AA3E022901A04E0F912BC
:105A300032E6740422EE240BFCE43FFD8E828F8359
:105A4000A3A3A3A3A3A3A3A3A31271F08E828F8306
:105A5000A3A3A3A3A3A3A3A3E0F922C082C083743A
:105A6000F3122A80851882851983E4F004122C8EA3
:105A700012584E7403122C8EAA82AB83123A60AA7B
:105A800018AB19123A9C740D1229D202643174F6C3
:105A900012243A1264C7F8A3E0125AD1F8901A15EA
:105AA000E058F508A3E059F509E5084509601F78B5
:105AB000081229A49019CE122807EE240E1264CEE3
:105AC000FD7C001264D512374874041229D20252A8
:105AD000B98882F583125AD922E0FAA3E0F9EA22C2
:105AE00074EA12243A74DB122A808A148B15751218
:105AF000007513001274953515F583126144F50E87
:105B0000AC18AD197A007B00799C123BDA7A0479E3
:105B100000123AC6EAF50C851882851983E02AF04E
:105B2000F8E50EC3984003025D04E0C3950EF50945
:105B3000C394044003750903E50975F01AA4FAAB90
:105B4000F012322C8A128B13EA4B7003025D077538
:105B50000D00AE12AF13850E08025BE47C087D00D9
:105B600079FFEE240AFAE43FFB123172850A82853E
:105B70000B83A3A3A3A3E0702D850A82850B831258
:105B80006839700C1273C9F0EE24181273CC8010AF
:105B9000125D8CF0901CBFE014C0E0125D6FD0E08D
:105BA000125DBFE48034901CBFE004C0E0125D6F62
:105BB000D0E0125DB2C39403EE4003025C6D127438
:105BC0008A7402125DB264017003025C7AEE2415DD
:105BD000125D8FF0EE2416125D8FF0EE241AFE5047
:105BE000010F050DE50DC395094003025CA5E5080D
:105BF000C3950C4003025C83AA087B00123B148A05
:105C00000A8B0B0508901CAC125D98850A82850BE7
:105C100083126009125D67F583E8F0A3E9125DCF96
:105C2000850A82850B83A3A3A3A3A3A3A3A3A3A3F2
:105C3000E0C0E0125D5DD0E0F07401122C8EE4F063
:105C4000850A82850B831260097402122C8EE81279
:105C500075CE7401122A42123A8AE9640160030285
:105C60005B5C7404122C8E125D7D025B6C125D8D88
:105C7000125DB264036003025BCDEE24151273CC97
:105C8000025BD3E50CC3950E4005750800801DE549
:105C90000EC3950CF5088014125D8CF0EE241AFEEC
:105CA00050010F050DE50DC39509505B740E122AC6
:105CB0004AAA087B007987123BDA05087418122C6F
:105CC0008E125D987410122C8E125D7DEE2412F8E7
:105CD000E43FF9740E122C8E125FFF88828983EAEA
:105CE000F0A3EB125DBF7403125DCF741D122C8EF6
:105CF000E0C0E0125D5DD0E01276ABE84970991229
:105D000073C98097750900750A00780A1229A87866
:105D1000121229A478091229A8E50EF509780912AA
:105D200029A87405122C8EE0FD7C00E51412625C3B
:105D30003515FBE5141273BA3515F583E0F9123702
:105D40008474051229D2E51245136007AA12AB1319
:105D500012323274251229D27F0E0226B5EE241992
:105D6000F582E43FF58322EE2412F582E43F22120D
:105D70005D7322EE2418F582E43FF58322AC82ADF8
:105D800083EE240AFAE43FFB12332E22EE2414F5AC
:105D900082E43FF583740122126A3D8E828F83E88C
:105DA000F0A3E9F07CC07D1CEE12625C3FFB123375
:105DB0002E22F0850A82850B83A3A3A3A3E02212DF
:105DC000740D7402F0EE2416F582E43FF58322F0A0
:105DD000EE2417F582E43FF5837402F0125D7374CC
:105DE000FFF02274F612243A74F9122A8012749188
:105DF0003509127922851882851983122C778E82B3
:105E00008F83A3A3A3A3E0C0E07404122C8ED0E080
:105E10001276C0F87405122C8E7401F07406122CE0
:105E20008E7401F09019D8F09019E1041274AFFA51
:105E3000A3E0FB9019D912584EE89019E2125E5671
:105E40009019D7F0AA18AB19123B7AE96003123BFC
:105E50008074070252B6F0E508240F1271BD227457
:105E6000F212243A74FF122A807508007E007F0027
:105E70001240CC8A0A8B0B125FDF80080508125F84
:105E8000EB126009E84970F4901B1DE060076401A3
:105E90006003025F57125FDF8006125FEB1260093A
:105EA000E849603388828983125FFF901CACE06A06
:105EB0007003A3E06B600A125FEB125FFFEA4B70A6
:105EC000D988828983126009901CACE0687003A3B2
:105ED000E0697003025F577A167B001276436077A1
:105EE000901CAC1260098A828B83E81275CE901CDC
:105EF000A1126B23F012422EE98E828F83A3A3A3FB
:105F0000A3A3F0901EBCE08E828F83A3A3A3A3A3C0
:105F1000A3F07CC07D1CEE240B125D84AA18AB1983
:105F20007941123940851882851983E060089019FB
:105F3000CE126009800478FE79FF8E828F83A3A33E
:105F4000A3A3A3A3A3E81275CEEE125FF33F1260E2
:105F50000D8E0A8F0B05089019E2E0F8E508C3984A
:105F6000500479008027E508C398F9C394064002DD
:105F700079057800800DE50A125FF3350B125A227D
:105F8000F50B089019E2E0FAE8C39A40E9750900B8
:105F900078091229A8780A1229A4E9F509780912C2
:105FA00029A89019E2E0F50978091229A8AD087C22
:105FB000007AD97B199019D7E0F912377E7405124F
:105FC00029D2901B1DE060046401700BEE4F600746
:105FD000EEFAEFFB123232123B8074010276FE12AF
:105FE00040CC8A0C8B0DA80CA90D22E8125FF33966
:105FF000F583222414F582E4228518828519831200
:1060000071F022851882851983126A3D22F583E595
:106010000AF0A3E50BF02274F012243A74FF122A5E
:10602000808A0A8B0B7E008E0E8E0F127495125A88
:1060300001126144FFAC18AD197A007B00799D1202
:106040003BDA851882851983E0F8EFC39840030294
:1060500060EBE0C39FFEC3940B40027E0AEE75F036
:1060600007A4FAABF01262548A0E8B0FEA4B6079E8
:10607000750C00801A850882850983A3A3A3A3A3B6
:106080007403F0E5082407F50850020509050CE53E
:106090000CC39E5056AC08AD09E50C2FFAE4340051
:1060A000FB798B123BDA850882850983A3A3A3A31E
:1060B000A3E014600814601314601F80B885088280
:1060C000850983A3A3A3A3A3E480B78508828509D8
:1060D00083A3A3A3A3A3740180A885088285098351
:1060E000A3A3A3A3A3740280997E00750800780877
:1060F0001229A8780E1229A4EEF50878081229A80A
:10610000EFF50878081229A87405122C8EE0FD7CA2
:1061100000E50A12625C350BFBE50A1273BA125AEB
:1061200001E0F912378A74051229D2E50E450F6095
:1061300007AA0EAB0F12323274011229D202513F5C
:1061400012580BA3125809E02274EE12243A74FE7E
:10615000122A808A0C8B0D7510007511001274952F
:10616000350DF583126144F50AAC18AD197A007B40
:106170000079A3123EBC126003C3E50A98E499506B
:1061800074851882851983A80AE0C398FEA3E09459
:1061900000FFC3EE9404EF940040067E037F00806E
:1061A00004EE4F6050EEFAEFFBEA75F015A4FAA882
:1061B000F075F015EBA4281262538A108B11EA4B8C
:1061C0006033750B00750E00801FAC08AD09A80A7E
:1061D000E50E28FAE43400FB79A2123EBCE508245F
:1061E00015F50850020509050EC3E50E9EE49F4013
:1061F000D9EEF98005750B8B7900750800780812C7
:1062000029A878101229A4E9F50878081229A8E528
:106210000AF50878081229A87405122C8EE0FDAC46
:106220000BE50C12625C350DFBE50C1273BA350DF3
:10623000F583E0F912379074051229D2E510451163
:106240006007AA10AB1112323274021229D27F0AEF
:106250000226B5FB12322C8A088B09222402FAE4AA
:106260002274F612243A74FF122A80EAFEEBFF121F
:1062700062BA125FFF8A82F583A3A3A3A3A3A3A399
:10628000A3E0F9123B9EE9851882851983F0750811
:106290000078081229A87401122A3A880889097816
:1062A000081229A475083575098078081229A412E6
:1062B00062C21229D274010252B6EA12749A3FF5F0
:1062C000832279011262CEFAE43F1263A622EE2401
:1062D00002FCE43FFDEE240F2274F412243A74FA17
:1062E000122A80127491126F241275C0FFEEFAEF19
:1062F000FB123A66E9600F1263ADEEFAEFFB123360
:1063000028E96401700A7401122C8EE4F0A380095C
:106310007401122C8EEEF0A3EF1276EBF8A2E65089
:10632000087403122C8E7401F0E8A2E7500874047C
:10633000122C8E7401F07405122C8EE4F004122AD3
:1063400042123BCEE9851882851983F09080E712CE
:106350002C5F1241C87A007B001241D47A007B0086
:106360001241CE750A00780A1229A87401122A3A3D
:10637000880A890B780A1229A4750A34750B80786B
:106380000A1229A412638F1229D274060251A1792C
:1063900001E5082402FCE43509FDE508240FFAE4D0
:1063A00035091263A622FB1236E87405221241A4B5
:1063B0008A0A8B0BAC0AAD0B2274F612243A74FFD6
:1063C000122A801264C7F8A3E08882F583E0F509F9
:1063D000A3E0F508A909123B8CE985188285198389
:1063E000F0901B1DE0700B740165087005A909127F
:1063F000384AEE240B1264CE702775080078081214
:1064000029A87401122A3A8808890978081229A44F
:1064100075083675098078081229A41262C21229FB
:10642000D20262B5C082C083901B1DE07003123897
:1064300050D083D08202298474F412243A74EF126B
:106440002A801264EC7003A3E0697052A818A9199D
:10645000880A890B780A1229A4750A11750B00782D
:106460000A1229A47C007D007A817B001232B67466
:10647000041229D2E97027750A00780A1229A87433
:1064800001122A3A880A890B780A1229A4AC08ADAD
:10649000091264D512374274031229D28024750A76
:1064A00011750B80780A1229A478081229A4EE2409
:1064B0000E1264CEFD7C841264D512374E74041221
:1064C00029D274110251A1EAFEEBFFEA2413F582EE
:1064D000E4125A14221264D922EE2402FAE43FFB99
:1064E000EE240FF582E43FF583E0F922EAFEEBFFAC
:1064F0001253E5F508E439F5099019CEE06A2274E3
:10650000F112243A74EB122A80EAFEEBFF12749522
:1065100012661FFAE4CAFBEC2AF5089019CEE06C6B
:106520007003A3E06B60030265C488828983A3A320
:10653000E09410500F88828983A3A3E08518828598
:10654000198380088518828519837410F0E0C0E0F3
:106550007404122C8ED0E01275AFA982AA83890C24
:106560008A0D750E00780C1229A07407122C8EE08B
:10657000FC7D007408122C8EAA82AB83126F32123B
:1065800029D27404122A3A880A890B780A1229A49B
:10659000750A11750B00780A1229A47C007D007A17
:1065A000817B001232B074041229D27404122C8E32
:1065B000E0901A0D6005E0D2E48003E0C2E41266C8
:1065C00027E480088518828519837484F0E0C0E090
:1065D0007401122C8ED0E0F07402122C8EE508F0BB
:1065E0007403122C8EE508F01266183F127209121D
:1065F00029A87402122A3A8808890978081229A45D
:1066000075081475098078081229A479031262C4E8
:106610001229D27415026D48EE240EF582E4223F51
:106620001275D3FCA3E022F08518828519832274A9
:10663000F612243A74E0122A80EAFEEBFF901CAEB8
:10664000E064086008E064046003026813AC18ADFD
:10665000191236D0901B1DE0640270271241A474F9
:1066600002122C8EAC82AD83123328E960151268B9
:1066700018851882851983E0687003A3E0697003A8
:106680000268131243787402122C8EAC82AD83120E
:106690005FF9124276E964017003026813741812FC
:1066A0002A421241B67402122C8EAC82AD83741849
:1066B000122A42123328E9602D1241B08A088B0950
:1066C000A808A909851882851983E0687003A3E0EA
:1066D000696013126003901CA2E81275CE7AA27B47
:1066E0001C794B123946901B1DE0600464017067F1
:1066F000126818EE24111264CE687003A3E069607A
:10670000567402122C8EAA82AB83123AF08B09A91E
:1067100009EA4960268A828B83A3A3A3A3E06401CC
:10672000600D8A828B83A3A3A3A3E06402700C7420
